:100000000C942A000C9447000C9447000C94470071
:100010000C9447000C9447000C9447000C94470044
:100020000C9447000C9447000C9447000C94470034
:100030000C94E0020C9447000C9447000C94470089
:100040000C9447000C9447000C9447000C94470014
:100050000C94470011241FBECFE5D8E0DEBFCDBF12
:1000600010E0A0E6B0E0ECEDF6E002C005900D92E5
:10007000A637B107D9F720E0A6E7B0E001C01D928E
:10008000A737B207E1F70E949E020C946C030C9410
:10009000000041E064E082E00E945B00089541E0DE
:1000A00064E082E00E94CC00089540E064E082E0D9
:1000B0000E94CC0008954423B9F1413009F06BC08F
:1000C000813089F028F08230C9F0833011F1089531
:1000D0002AB381E090E002C0880F991F6A95E2F789
:1000E000822B8ABB089527B381E090E002C0880F7D
:1000F000991F6A95E2F7822B87BB089524B381E0AC
:1001000090E002C0880F991F6A95E2F7822B84BBAA
:10011000089521B381E090E002C0880F991F6A958D
:10012000E2F7822B81BB0895813091F028F0823074
:10013000D9F0833029F108952AB381E090E002C01C
:10014000880F991F6A95E2F7809582238ABB0895EC
:1001500027B381E090E002C0880F991F6A95E2F70B
:100160008095822387BB089524B381E090E002C08C
:10017000880F991F6A95E2F78095822384BB0895C2
:1001800021B381E090E002C0880F991F6A95E2F7E1
:100190008095822381BB08954423B9F1413009F051
:1001A0006BC0813089F028F08230C9F0833011F1C2
:1001B00008952BB381E090E002C0880F991F6A95E3
:1001C000E2F7822B8BBB089528B381E090E002C058
:1001D000880F991F6A95E2F7822B88BB089525B393
:1001E00081E090E002C0880F991F6A95E2F7822BA8
:1001F00085BB089522B381E090E002C0880F991F6B
:100200006A95E2F7822B82BB0895813091F028F045
:100210008230D9F0833029F108952BB381E090E04A
:1002200002C0880F991F6A95E2F7809582238BBBE5
:10023000089528B381E090E002C0880F991F6A9565
:10024000E2F78095822388BB089525B381E090E092
:1002500002C0880F991F6A95E2F78095822385BBBB
:10026000089522B381E090E002C0880F991F6A953B
:10027000E2F78095822382BB0895CF93C82F40E098
:1002800061E081E00E94CC0040E062E081E00E94F9
:10029000CC0040E063E081E00E94CC008BB39C2F57
:1002A000907F8F70892B8BBB41E063E081E00E94DF
:1002B000CC008FE99FE00197F1F700C0000040E01B
:1002C00063E081E00E94CC0020E1C29FC0011124C4
:1002D0009BB39F70892B8BBB41E063E081E00E9460
:1002E000CC008FE99FE00197F1F700C0000040E0EB
:1002F00063E081E00E94CC008FE19EE40197F1F77A
:1003000000C00000CF91089541E061E081E00E94CB
:100310005B0041E062E081E00E945B0041E063E05D
:1003200081E00E945B0041E064E080E00E945B00AD
:1003300041E065E080E00E945B0041E066E080E033
:100340000E945B0041E067E080E00E945B002FEFCD
:1003500081EE94E0215080409040E1F700C0000021
:1003600083E30E943D0182E30E943D0188E20E94F6
:100370003D018CE00E943D0181E00E943D0186E04C
:100380000E943D0182E00E943D010895CF93C82F55
:1003900041E061E081E00E94CC0040E062E081E069
:1003A0000E94CC0040E063E081E00E94CC008BB36F
:1003B0009C2F907F8F70892B8BBB41E063E081E0A5
:1003C0000E94CC008FE99FE00197F1F700C0000088
:1003D00040E063E081E00E94CC0020E1C29FC001C8
:1003E00011249BB39F70892B8BBB41E063E081E0BC
:1003F0000E94CC008FE99FE00197F1F700C0000058
:1004000040E063E081E00E94CC008FE19EE4019730
:10041000F1F700C00000CF9108950F931F93CF9381
:100420008C01C0E003C00E94C601CF5FF801EC0F51
:10043000F11D80818111F7CFCF911F910F91089508
:10044000CF93DF9300D0CDB7DEB790E8998390ECDF
:100450009A83E1E0F0E0EC0FFD1FE60FF11D9081C3
:10046000890F0E943D010F900F90DF91CF91089569
:100470008F929F92AF92BF92CF92DF92EF92FF92B4
:100480006B017C0199235CF48DE20E94C601F0941B
:10049000E094D094C094C11CD11CE11CF11C61E01B
:1004A00070E080E090E024C0DC01CB01880F991F50
:1004B000AA1FBB1F4C015D01880C991CAA1CBB1C08
:1004C000880C991CAA1CBB1C880E991EAA1EBB1E58
:1004D000C701B6012AE030E040E050E00E942B0363
:1004E000680D791D8A1D9B1DC22ED32EE42EF52E7C
:1004F0001C141D041E041F04BCF212C02AE030E0CC
:1005000040E050E00E942B03C22ED32EE42EF52EA5
:1005100080E3860F0E94C6016C2D7D2D8E2D9F2DB0
:1005200062307105810591054CF7FF90EF90DF90E7
:10053000CF90BF90AF909F908F9008950E948401BC
:100540000E9449000E94060360E080E00E942002B1
:1005500080E690E00E940D0261E080E00E942002AF
:1005600087E690E00E940D020E94280380937600A7
:1005700060E087E00E9420026091760070E080E0F9
:1005800090E00E94380280917600893150F00E94FC
:100590004F0061E087E00E9420028EE690E00E941A
:1005A0000D02809176008831F8F60E94550061E0D6
:1005B00087E00E94200282E790E00E940D02D4CFE3
:1005C0001F920F920FB60F9211242F933F934F93C8
:1005D0005F936F937F938F939F93AF93BF93EF93AB
:1005E000FF930E94280380937600FF91EF91BF91C3
:1005F000AF919F918F917F916F915F914F913F91BB
:100600002F910F900FBE0F901F90189540E064E05F
:1006100081E00E945B0040E065E081E00E945B00B9
:1006200041E066E081E00E945B0040E067E081E03D
:100630000E945B008DB19EB180649EB98DB98FB769
:1006400080688FBF8DB19EB180689EB98DB90895C5
:100650008FB190B30895052E97FB1EF400940E946D
:10066000420357FD07D00E944A0307FC03D04EF413
:100670000C94420350954095309521953F4F4F4F34
:100680005F4F089590958095709561957F4F8F4F3E
:100690009F4F0895A1E21A2EAA1BBB1BFD010DC09E
:1006A000AA1FBB1FEE1FFF1FA217B307E407F50722
:1006B00020F0A21BB30BE40BF50B661F771F881FFE
:1006C000991F1A9469F760957095809590959B0194
:0C06D000AC01BD01CF010895F894FFCFEC
:1006DC0054656D70203D00412F43206973004F4ECF
:0606EC0020004F4646000D
:00000001FF
