:100000000C942A000C943F000C943F000C943F0089
:100010000C943F000C943F000C943F000C943F0064
:100020000C943F000C943F000C943F000C943F0054
:100030000C943F000C943F000C943F000C943F0044
:100040000C943F000C943F000C943F000C943F0034
:100050000C943F0011241FBECFE5D8E0DEBFCDBF1A
:1000600010E0A0E6B0E0E4E9F5E002C005900D92F2
:10007000A038B107D9F70E9478020C94C8020C94FA
:1000800000004423B9F1413009F06BC0813089F0A0
:1000900028F08230C9F0833011F108952AB381E04D
:1000A00090E002C0880F991F6A95E2F7822B8ABB05
:1000B000089527B381E090E002C0880F991F6A95E8
:1000C000E2F7822B87BB089524B381E090E002C061
:1000D000880F991F6A95E2F7822B84BB089521B39C
:1000E00081E090E002C0880F991F6A95E2F7822BA9
:1000F00081BB0895813091F028F08230D9F08330AF
:1001000029F108952AB381E090E002C0880F991F79
:100110006A95E2F7809582238ABB089527B381E030
:1001200090E002C0880F991F6A95E2F780958223BC
:1001300087BB089524B381E090E002C0880F991F27
:100140006A95E2F78095822384BB089521B381E00C
:1001500090E002C0880F991F6A95E2F7809582238C
:1001600081BB08954423B9F1413009F06BC081305F
:1001700089F028F08230C9F0833011F108952BB353
:1001800081E090E002C0880F991F6A95E2F7822B08
:100190008BBB089528B381E090E002C0880F991FBF
:1001A0006A95E2F7822B88BB089525B381E090E041
:1001B00002C0880F991F6A95E2F7822B85BB0895CC
:1001C00022B381E090E002C0880F991F6A95E2F7A0
:1001D000822B82BB0895813091F028F08230D9F0D3
:1001E000833029F108952BB381E090E002C0880F9D
:1001F000991F6A95E2F7809582238BBB089528B3F7
:1002000081E090E002C0880F991F6A95E2F780951F
:10021000822388BB089525B381E090E002C0880F57
:10022000991F6A95E2F78095822385BB089522B3D2
:1002300081E090E002C0880F991F6A95E2F78095EF
:10024000822382BB0895813089F028F08230C9F082
:10025000833011F108952BB381E090E002C0880F44
:10026000991F6A95E2F782278BBB089528B381E036
:1002700090E002C0880F991F6A95E2F7822788BB39
:10028000089525B381E090E002C0880F991F6A9518
:10029000E2F7822785BB089522B381E090E002C097
:1002A000880F991F6A95E2F7822782BB0895CF9342
:1002B000C82F40E061E081E00E94B20040E062E0CF
:1002C00081E00E94B20040E063E081E00E94B20061
:1002D0008BB39C2F907F8F70892B8BBB41E063E0A9
:1002E00081E00E94B2008FE99FE00197F1F700C022
:1002F000000040E063E081E00E94B20020E1C29F84
:10030000C00111249BB39F70892B8BBB41E063E03C
:1003100081E00E94B2008FE99FE00197F1F700C0F1
:10032000000040E063E081E00E94B2008FE19EE4C3
:100330000197F1F700C00000CF91089541E061E01E
:1003400081E00E94410041E062E081E00E944100C2
:1003500041E063E081E00E94410041E064E080E030
:100360000E94410041E065E080E00E94410041E0E0
:1003700066E080E00E94410041E067E080E00E948A
:1003800041002FEF81EE94E0215080409040E1F752
:1003900000C0000083E30E94570182E30E945701DE
:1003A00088E20E9457018CE00E94570181E00E9480
:1003B000570186E00E94570182E00E94570108958C
:1003C000CF93C82F41E061E081E00E94B20040E09D
:1003D00062E081E00E94B20040E063E081E00E94C0
:1003E000B2008BB39C2F907F8F70892B8BBB41E029
:1003F00063E081E00E94B2008FE99FE00197F1F78E
:1004000000C0000040E063E081E00E94B20020E113
:10041000C29FC00111249BB39F70892B8BBB41E00D
:1004200063E081E00E94B2008FE99FE00197F1F75D
:1004300000C0000040E063E081E00E94B2008FE174
:100440009EE40197F1F700C00000CF9108950F934B
:100450001F93CF938C01C0E003C00E94E001CF5FE7
:10046000F801EC0FF11D80818111F7CFCF911F9121
:100470000F910895CF93DF9300D0CDB7DEB790E80A
:10048000998390EC9A83E1E0F0E0EC0FFD1FE60F1A
:10049000F11D9081890F0E9457010F900F90DF91FD
:1004A000CF91089581E00E945701089541E060E0F6
:1004B00082E00E944100089540E060E082E00E94F6
:1004C000B200089560E082E00E942301089541E0B7
:1004D00061E082E00E944100089540E061E082E036
:1004E0000E94B200089561E082E00E942301089515
:1004F0000E9456020E9467020E949E010E94A5026D
:100500000E94520260E080E00E943A0280E690E0A1
:100510000E94270261E080E00E943A0280E790E0BA
:100520000E94270280E00E94BE02C82F813611F48B
:100530000E946202C23611F40E947302C03791F722
:100540000E945C020E946D02EDCF40E064E081E019
:100550000E94410040E065E081E00E94410041E0EE
:1005600066E081E00E94410040E067E081E00E9497
:10057000410080E490E09EB98DB9089590E090BB71
:100580008FB98EB19FB187FFFCCF8FB190B3089523
:04059000F894FFCF0D
:10059400612C6220746F20546F676C654C45440075
:1005A400507574277027434C522026204F4646002E
:00000001FF
