:100000000C942A000C943C000C943C000C943C0092
:100010000C943C000C943C000C943C000C94690340
:100020000C943C000C943C000C943C000C94E202B8
:100030000C943C000C943C000C943C000C943C0050
:100040000C943C000C943C000C943C000C943C0040
:100050000C943C0011241FBECFE5D8E0DEBFCDBF1D
:1000600020E0A0E6B0E001C01D92A537B207E1F79D
:100070000E941B020C94E0030C94000087B1806482
:1000800087B987B18F7787B987B18F7D87B987B1F6
:10009000816087B986B1806286B986B1816086B990
:1000A00086B1826086B986B1846086B986B1877F61
:1000B00086B986B1806886B9089586B1806486B9AC
:1000C000349BFECF84B195B108954423B9F14130FA
:1000D00009F06BC0813089F028F08230C9F083309C
:1000E00011F108952AB381E090E002C0880F991FB2
:1000F0006A95E2F7822B8ABB089527B381E090E0EE
:1001000002C0880F991F6A95E2F7822B87BB08957A
:1001100024B381E090E002C0880F991F6A95E2F74E
:10012000822B84BB089521B381E090E002C0880F48
:10013000991F6A95E2F7822B81BB0895813091F077
:1001400028F08230D9F0833029F108952AB381E074
:1001500090E002C0880F991F6A95E2F7809582238C
:100160008ABB089527B381E090E002C0880F991FF1
:100170006A95E2F78095822387BB089524B381E0D6
:1001800090E002C0880F991F6A95E2F7809582235C
:1001900084BB089521B381E090E002C0880F991FCD
:1001A0006A95E2F78095822381BB08954423B9F1D3
:1001B000413009F06BC0813089F028F08230C9F0FD
:1001C000833011F108952BB381E090E002C0880FD5
:1001D000991F6A95E2F7822B8BBB089528B381E0C3
:1001E00090E002C0880F991F6A95E2F7822B88BBC6
:1001F000089525B381E090E002C0880F991F6A95A9
:10020000E2F7822B85BB089522B381E090E002C023
:10021000880F991F6A95E2F7822B82BB089581307F
:1002200091F028F08230D9F0833029F108952BB372
:1002300081E090E002C0880F991F6A95E2F78095EF
:1002400082238BBB089528B381E090E002C0880F21
:10025000991F6A95E2F78095822388BB089525B39C
:1002600081E090E002C0880F991F6A95E2F78095BF
:10027000822385BB089522B381E090E002C0880FFD
:10028000991F6A95E2F78095822382BB0895CF93E8
:10029000C82F40E061E081E00E94D60040E062E0CB
:1002A00081E00E94D60040E063E081E00E94D60039
:1002B0008BB39C2F907F8F70892B8BBB41E063E0C9
:1002C00081E00E94D6008FE99FE00197F1F700C01E
:1002D000000040E063E081E00E94D60020E1C29F80
:1002E000C00111249BB39F70892B8BBB41E063E05D
:1002F00081E00E94D6008FE99FE00197F1F700C0EE
:10030000000040E063E081E00E94D6008FE19EE4BF
:100310000197F1F700C00000CF91089541E061E03E
:1003200081E00E94650041E062E081E00E9465009A
:1003300041E063E081E00E94650041E064E080E02C
:100340000E94650041E065E080E00E94650041E0B8
:1003500066E080E00E94650041E067E080E00E9486
:1003600065002FEF81EE94E0215080409040E1F74E
:1003700000C0000083E30E94470182E30E9447011E
:1003800088E20E9447018CE00E94470181E00E94C0
:10039000470186E00E94470182E00E9447010895DC
:1003A000CF93C82F41E061E081E00E94D60040E099
:1003B00062E081E00E94D60040E063E081E00E94BC
:1003C000D6008BB39C2F907F8F70892B8BBB41E025
:1003D00063E081E00E94D6008FE99FE00197F1F78A
:1003E00000C0000040E063E081E00E94D60020E110
:1003F000C29FC00111249BB39F70892B8BBB41E02E
:1004000063E081E00E94D6008FE99FE00197F1F759
:1004100000C0000040E063E081E00E94D6008FE170
:100420009EE40197F1F700C00000CF91089581E0AC
:100430000E94470108950E94AF0380EC93E00E9460
:1004400064030E94340364E670E080E090E00E9460
:1004500048030E943E030E948E010E94CC020E942B
:1004600079020E949E0280917400882359F180379E
:1004700071F48FE39CE90197F1F700C000000E943E
:1004800017028FE39CE90197F1F700C0000080910B
:1004900074000E94D0010E9492028FE39CE90197B0
:1004A000F1F700C000008091740090E00E94C30248
:1004B0008FE39CE90197F1F700C000000E949802C9
:1004C000109274000E94CF02EC010E94B7028FE3E9
:1004D0009CE90197F1F700C00000CE010E94C30221
:1004E0008FE39CE90197F1F700C000000E94BD0274
:1004F000BACF41E064E081E00E94650041E065E040
:1005000081E00E94650040E066E081E00E946500B5
:1005100041E067E081E00E94650083E590E09EB9DC
:100520008DB9089540E064E081E00E94D60008950E
:1005300041E064E081E00E94D600089541E067E078
:1005400083E00E94650041E065E081E00E94650073
:1005500040E066E081E00E94650041E067E081E004
:100560000E94650083E590E09EB98DB9089540E052
:1005700067E083E00E94D600089541E067E083E0F1
:100580000E94D600089590BB8FB98EB19FB187FFAE
:10059000FCCF8FB190B308950E943E0008950E9451
:1005A0005D009C01A4EFB1E00E94C603DC01CB0119
:1005B000072E7AE0B695A795979587957A95D1F706
:1005C000702D08951F920F920FB60F9211242F9342
:1005D0003F934F935F936F937F938F939F93AF93CB
:1005E000BF93EF93FF938091640090916500A09179
:1005F0006600B09167000196A11DB11D8093640053
:1006000090936500A0936600B093670040917000DE
:10061000509171006091720070917300841795077A
:10062000A607B70781F4E0916A00F0916B00099585
:10063000109264001092650010926600109267009C
:1006400080916C0082BFFF91EF91BF91AF919F911C
:100650008F917F916F915F914F913F912F910F906B
:100660000FBE0F901F9018958EB588608EBD8FB706
:1006700080688FBF89B7806189BF08958EB581601A
:100680008EBD8EB58D7F8EBD8EB584608EBD089576
:10069000613A2FE0720781059105A8F4A8EEB3E056
:1006A0009B01AC010E94D503DC01CB01689415F8D5
:1006B000B695A795979587951694D1F7BC0161508B
:1006C00071097BBD6ABD08959093690080936800AD
:1006D00008951F920F920FB60F9211242F933F93FC
:1006E0004F935F936F937F938F939F93AF93BF933A
:1006F000EF93FF938091600090916100A091620060
:10070000B09163000196A11DB11D8093600090938C
:100710006100A0936200B09363000197A105B10549
:1007200069F41092600010926100109262001092C1
:100730006300E0916800F09169000995FF91EF91E5
:10074000BF91AF919F918F917F916F915F914F91E9
:100750003F912F910F900FBE0F901F90189581B36E
:10076000826081BB81B38E7F81BB8AB188608AB988
:100770008AB180618AB986E880BD87E689B9089523
:100780005F9B03C08CB1809374000895A29FB00159
:10079000B39FC001A39F700D811D1124911DB29FB5
:1007A000700D811D1124911D08950E94C603A59FFF
:1007B000900DB49F900DA49F800D911D112408955C
:0407C000F894FFCFDB
:00000001FF
